{
  "transactions": [
    {
      "hash": "0xf2bcafaba3c5c14f244821f53abae7ea4ffb65b2b6bba17838e3bd823dc91789",
      "transactionType": "CALL",
      "contractName": "Manager",
      "contractAddress": "0xdc76e2dd4bdc3edf718b3e30f855ef975a411a37",
      "function": "deploy((address,uint256,uint256)[],(bytes),(uint256,uint256),(uint256,uint256,uint256,uint256,uint256)):(address,address,address,address,address)",
      "arguments": [
        "[(9444390c01dd5b7249e53fac31290f7dff53450d,2,632e5938)]",
        "(00000000000000000000000000000000000000000000000000000000000000a000000000000000000000000000000000000000000000000000000000000000e00000000000000000000000000000000000000000000000000000000000000120000000000000000000000000000000000000000000000000000000000000016000000000000000000000000000000000000000000000000000000000000001c0000000000000000000000000000000000000000000000000000000000000000a4d6f636b20546f6b656e0000000000000000000000000000000000000000000000000000000000000000000000000000000000000000000000000000000000044d4f434b000000000000000000000000000000000000000000000000000000000000000000000000000000000000000000000000000000000000000000000014546869732069732061206d6f636b20746f6b656e0000000000000000000000000000000000000000000000000000000000000000000000000000000000000035697066733a2f2f516d657737546479476e6a365952556a5152363873554a4e333233394d595852443875786f7778463672474b386a0000000000000000000000000000000000000000000000000000000000000000000000000000000000001c687474703a2f2f6c6f63616c686f73743a353030302f72656e64657200000000)",
        "(2386f26fc10000,a)",
        "(0,0,a,a,64)"
      ],
      "transaction": {
        "type": "0x02",
        "from": "0x9444390c01dd5b7249e53fac31290f7dff53450d",
        "to": "0xdc76e2dd4bdc3edf718b3e30f855ef975a411a37",
        "gas": "0x20a546",
        "value": "0x0",
        "data": "0xeb1cb38c000000000000000000000000000000000000000000000000000000000000012000000000000000000000000000000000000000000000000000000000000001a0000000000000000000000000000000000000000000000000002386f26fc10000000000000000000000000000000000000000000000000000000000000000000a00000000000000000000000000000000000000000000000000000000000000000000000000000000000000000000000000000000000000000000000000000000000000000000000000000000000000000000000000000000000000000000000a000000000000000000000000000000000000000000000000000000000000000a000000000000000000000000000000000000000000000000000000000000006400000000000000000000000000000000000000000000000000000000000000010000000000000000000000009444390c01dd5b7249e53fac31290f7dff53450d000000000000000000000000000000000000000000000000000000000000000200000000000000000000000000000000000000000000000000000000632e59380000000000000000000000000000000000000000000000000000000000000020000000000000000000000000000000000000000000000000000000000000020000000000000000000000000000000000000000000000000000000000000000a000000000000000000000000000000000000000000000000000000000000000e00000000000000000000000000000000000000000000000000000000000000120000000000000000000000000000000000000000000000000000000000000016000000000000000000000000000000000000000000000000000000000000001c0000000000000000000000000000000000000000000000000000000000000000a4d6f636b20546f6b656e0000000000000000000000000000000000000000000000000000000000000000000000000000000000000000000000000000000000044d4f434b000000000000000000000000000000000000000000000000000000000000000000000000000000000000000000000000000000000000000000000014546869732069732061206d6f636b20746f6b656e0000000000000000000000000000000000000000000000000000000000000000000000000000000000000035697066733a2f2f516d657737546479476e6a365952556a5152363873554a4e333233394d595852443875786f7778463672474b386a0000000000000000000000000000000000000000000000000000000000000000000000000000000000001c687474703a2f2f6c6f63616c686f73743a353030302f72656e64657200000000",
        "nonce": "0x43e",
        "accessList": []
      }
    },
    {
      "hash": "0xf2dd190f70995c090cc8ae9d18af1bc0cf252cbe97cddba3ac3b7d5c523440d6",
      "transactionType": "CALL",
      "contractName": "ERC1967Proxy",
      "contractAddress": "0xe8fc6dc27ffbf4a9f800aef46506d620ecb8d9a1",
      "function": null,
      "arguments": null,
      "transaction": {
        "type": "0x02",
        "from": "0x9444390c01dd5b7249e53fac31290f7dff53450d",
        "to": "0xe8fc6dc27ffbf4a9f800aef46506d620ecb8d9a1",
        "gas": "0xc60c",
        "value": "0x0",
        "data": "0x7120334b0000000000000000000000000000000000000000000000000000000000000000",
        "nonce": "0x43f",
        "accessList": []
      }
    },
    {
      "hash": "0x3c89a00e7c9bbddec727d7121569fc6cde2d3cce3a5c920f0055d0b01127b3c3",
      "transactionType": "CALL",
      "contractName": "ERC1967Proxy",
      "contractAddress": "0xe8fc6dc27ffbf4a9f800aef46506d620ecb8d9a1",
      "function": null,
      "arguments": null,
      "transaction": {
        "type": "0x02",
        "from": "0x9444390c01dd5b7249e53fac31290f7dff53450d",
        "to": "0xe8fc6dc27ffbf4a9f800aef46506d620ecb8d9a1",
        "gas": "0x71b16",
        "value": "0x0",
        "data": "0x3f4ba83a",
        "nonce": "0x440",
        "accessList": []
      }
    },
    {
      "hash": "0x158bbe57d7d9657abb34da2d8b169696f75599eda6bc7852e53bcdc3e45b27a4",
      "transactionType": "CALL",
      "contractName": "ERC1967Proxy",
      "contractAddress": "0xe8fc6dc27ffbf4a9f800aef46506d620ecb8d9a1",
      "function": null,
      "arguments": null,
      "transaction": {
        "type": "0x02",
        "from": "0x9444390c01dd5b7249e53fac31290f7dff53450d",
        "to": "0xe8fc6dc27ffbf4a9f800aef46506d620ecb8d9a1",
        "gas": "0x15d90",
        "value": "0x2386f26fc10000",
        "data": "0x659dd2b40000000000000000000000000000000000000000000000000000000000000001",
        "nonce": "0x441",
        "accessList": []
      }
    }
  ],
  "receipts": [
    {
      "transactionHash": "0xf2bcafaba3c5c14f244821f53abae7ea4ffb65b2b6bba17838e3bd823dc91789",
      "transactionIndex": "0x2",
      "blockHash": "0xba1576e0d87cbef41b1264c1550393331917ffaabde362e648b83d5f61cf7a0d",
      "blockNumber": "0xabd69a",
      "from": "0x9444390c01dd5b7249e53fac31290f7dff53450d",
      "to": "0xdc76e2dd4bdc3edf718b3e30f855ef975a411a37",
      "cumulativeGasUsed": "0x1b9b6e",
      "gasUsed": "0x17a284",
      "contractAddress": null,
      "logs": [
        {
          "address": "0x5042e07c5be8952f6324986eee7c6a3d7c48c966",
          "topics": [
            "0xbc7cd75a20ee27fd9adebab32041f755214dbc6bffa90cc0225b39da2e5c2d3b"
          ],
          "data": "0x0000000000000000000000005cbfbd5a6e3a62fc7e8f8326572bb53ba0bcea26",
          "blockHash": "0xba1576e0d87cbef41b1264c1550393331917ffaabde362e648b83d5f61cf7a0d",
          "blockNumber": "0xabd69a",
          "transactionHash": "0xf2bcafaba3c5c14f244821f53abae7ea4ffb65b2b6bba17838e3bd823dc91789",
          "transactionIndex": "0x2",
          "logIndex": "0x8",
          "removed": false
        },
        {
          "address": "0x37682706acf1514e0d1be4378190d7a84ac0158c",
          "topics": [
            "0xbc7cd75a20ee27fd9adebab32041f755214dbc6bffa90cc0225b39da2e5c2d3b"
          ],
          "data": "0x000000000000000000000000409a2c4db55b48c96e4bd1ffc500b68d22b236ec",
          "blockHash": "0xba1576e0d87cbef41b1264c1550393331917ffaabde362e648b83d5f61cf7a0d",
          "blockNumber": "0xabd69a",
          "transactionHash": "0xf2bcafaba3c5c14f244821f53abae7ea4ffb65b2b6bba17838e3bd823dc91789",
          "transactionIndex": "0x2",
          "logIndex": "0x9",
          "removed": false
        },
        {
          "address": "0xe8fc6dc27ffbf4a9f800aef46506d620ecb8d9a1",
          "topics": [
            "0xbc7cd75a20ee27fd9adebab32041f755214dbc6bffa90cc0225b39da2e5c2d3b"
          ],
          "data": "0x0000000000000000000000006df4398c8ca1863e5852ca214d0c34bbfd2def94",
          "blockHash": "0xba1576e0d87cbef41b1264c1550393331917ffaabde362e648b83d5f61cf7a0d",
          "blockNumber": "0xabd69a",
          "transactionHash": "0xf2bcafaba3c5c14f244821f53abae7ea4ffb65b2b6bba17838e3bd823dc91789",
          "transactionIndex": "0x2",
          "logIndex": "0xa",
          "removed": false
        },
        {
          "address": "0x0f27b98d7e449fa27f294312c1534961967fb90e",
          "topics": [
            "0xbc7cd75a20ee27fd9adebab32041f755214dbc6bffa90cc0225b39da2e5c2d3b"
          ],
          "data": "0x0000000000000000000000000b940eebd19b3bda5afbf77a8c18b0ec00b9c60e",
          "blockHash": "0xba1576e0d87cbef41b1264c1550393331917ffaabde362e648b83d5f61cf7a0d",
          "blockNumber": "0xabd69a",
          "transactionHash": "0xf2bcafaba3c5c14f244821f53abae7ea4ffb65b2b6bba17838e3bd823dc91789",
          "transactionIndex": "0x2",
          "logIndex": "0xb",
          "removed": false
        },
        {
          "address": "0x76031221c734d0316e71dbb8c498ced0ec385434",
          "topics": [
            "0xbc7cd75a20ee27fd9adebab32041f755214dbc6bffa90cc0225b39da2e5c2d3b"
          ],
          "data": "0x00000000000000000000000049f5dab32875a2fa9160956e94c2b1e501b93fde",
          "blockHash": "0xba1576e0d87cbef41b1264c1550393331917ffaabde362e648b83d5f61cf7a0d",
          "blockNumber": "0xabd69a",
          "transactionHash": "0xf2bcafaba3c5c14f244821f53abae7ea4ffb65b2b6bba17838e3bd823dc91789",
          "transactionIndex": "0x2",
          "logIndex": "0xc",
          "removed": false
        },
        {
          "address": "0x5042e07c5be8952f6324986eee7c6a3d7c48c966",
          "topics": [
            "0xbe9b076dc5b65990cca9dd9d7366682482e7817a6f6bc7f4faf4dc32af497f32"
          ],
          "data": "0x0000000000000000000000000000000000000000000000000000000000000001",
          "blockHash": "0xba1576e0d87cbef41b1264c1550393331917ffaabde362e648b83d5f61cf7a0d",
          "blockNumber": "0xabd69a",
          "transactionHash": "0xf2bcafaba3c5c14f244821f53abae7ea4ffb65b2b6bba17838e3bd823dc91789",
          "transactionIndex": "0x2",
          "logIndex": "0xd",
          "removed": false
        },
        {
          "address": "0x37682706acf1514e0d1be4378190d7a84ac0158c",
          "topics": [
            "0x8292fce18fa69edf4db7b94ea2e58241df0ae57f97e0a6c9b29067028bf92d76",
            "0x0000000000000000000000000000000000000000000000000000000000000000",
            "0x0000000000000000000000009444390c01dd5b7249e53fac31290f7dff53450d"
          ],
          "data": "0x",
          "blockHash": "0xba1576e0d87cbef41b1264c1550393331917ffaabde362e648b83d5f61cf7a0d",
          "blockNumber": "0xabd69a",
          "transactionHash": "0xf2bcafaba3c5c14f244821f53abae7ea4ffb65b2b6bba17838e3bd823dc91789",
          "transactionIndex": "0x2",
          "logIndex": "0xe",
          "removed": false
        },
        {
          "address": "0x37682706acf1514e0d1be4378190d7a84ac0158c",
          "topics": [
            "0xbe9b076dc5b65990cca9dd9d7366682482e7817a6f6bc7f4faf4dc32af497f32"
          ],
          "data": "0x0000000000000000000000000000000000000000000000000000000000000001",
          "blockHash": "0xba1576e0d87cbef41b1264c1550393331917ffaabde362e648b83d5f61cf7a0d",
          "blockNumber": "0xabd69a",
          "transactionHash": "0xf2bcafaba3c5c14f244821f53abae7ea4ffb65b2b6bba17838e3bd823dc91789",
          "transactionIndex": "0x2",
          "logIndex": "0xf",
          "removed": false
        },
        {
          "address": "0xe8fc6dc27ffbf4a9f800aef46506d620ecb8d9a1",
          "topics": [
            "0x8292fce18fa69edf4db7b94ea2e58241df0ae57f97e0a6c9b29067028bf92d76",
            "0x0000000000000000000000000000000000000000000000000000000000000000",
            "0x0000000000000000000000009444390c01dd5b7249e53fac31290f7dff53450d"
          ],
          "data": "0x",
          "blockHash": "0xba1576e0d87cbef41b1264c1550393331917ffaabde362e648b83d5f61cf7a0d",
          "blockNumber": "0xabd69a",
          "transactionHash": "0xf2bcafaba3c5c14f244821f53abae7ea4ffb65b2b6bba17838e3bd823dc91789",
          "transactionIndex": "0x2",
          "logIndex": "0x10",
          "removed": false
        },
        {
          "address": "0xe8fc6dc27ffbf4a9f800aef46506d620ecb8d9a1",
          "topics": [
            "0xbe9b076dc5b65990cca9dd9d7366682482e7817a6f6bc7f4faf4dc32af497f32"
          ],
          "data": "0x0000000000000000000000000000000000000000000000000000000000000001",
          "blockHash": "0xba1576e0d87cbef41b1264c1550393331917ffaabde362e648b83d5f61cf7a0d",
          "blockNumber": "0xabd69a",
          "transactionHash": "0xf2bcafaba3c5c14f244821f53abae7ea4ffb65b2b6bba17838e3bd823dc91789",
          "transactionIndex": "0x2",
          "logIndex": "0x11",
          "removed": false
        },
        {
          "address": "0x76031221c734d0316e71dbb8c498ced0ec385434",
          "topics": [
            "0x8292fce18fa69edf4db7b94ea2e58241df0ae57f97e0a6c9b29067028bf92d76",
            "0x0000000000000000000000000000000000000000000000000000000000000000",
            "0x0000000000000000000000000f27b98d7e449fa27f294312c1534961967fb90e"
          ],
          "data": "0x",
          "blockHash": "0xba1576e0d87cbef41b1264c1550393331917ffaabde362e648b83d5f61cf7a0d",
          "blockNumber": "0xabd69a",
          "transactionHash": "0xf2bcafaba3c5c14f244821f53abae7ea4ffb65b2b6bba17838e3bd823dc91789",
          "transactionIndex": "0x2",
          "logIndex": "0x12",
          "removed": false
        },
        {
          "address": "0x76031221c734d0316e71dbb8c498ced0ec385434",
          "topics": [
            "0xbe9b076dc5b65990cca9dd9d7366682482e7817a6f6bc7f4faf4dc32af497f32"
          ],
          "data": "0x0000000000000000000000000000000000000000000000000000000000000001",
          "blockHash": "0xba1576e0d87cbef41b1264c1550393331917ffaabde362e648b83d5f61cf7a0d",
          "blockNumber": "0xabd69a",
          "transactionHash": "0xf2bcafaba3c5c14f244821f53abae7ea4ffb65b2b6bba17838e3bd823dc91789",
          "transactionIndex": "0x2",
          "logIndex": "0x13",
          "removed": false
        },
        {
          "address": "0xdc76e2dd4bdc3edf718b3e30f855ef975a411a37",
          "topics": [
            "0x456d2baf5a87d70e586ec06fb91c2d7849778dd41d80fa826a6ea5bf8d28e3a6"
          ],
          "data": "0x0000000000000000000000005042e07c5be8952f6324986eee7c6a3d7c48c96600000000000000000000000037682706acf1514e0d1be4378190d7a84ac0158c000000000000000000000000e8fc6dc27ffbf4a9f800aef46506d620ecb8d9a10000000000000000000000000f27b98d7e449fa27f294312c1534961967fb90e00000000000000000000000076031221c734d0316e71dbb8c498ced0ec385434",
          "blockHash": "0xba1576e0d87cbef41b1264c1550393331917ffaabde362e648b83d5f61cf7a0d",
          "blockNumber": "0xabd69a",
          "transactionHash": "0xf2bcafaba3c5c14f244821f53abae7ea4ffb65b2b6bba17838e3bd823dc91789",
          "transactionIndex": "0x2",
          "logIndex": "0x14",
          "removed": false
        }
      ],
      "status": "0x1",
      "logsBloom": "0x00020000000000000000000000000000400000000000000000000000000000000000000000000000008000000000000000000100000000000000000000000004000000000000080000000000000002000000000000000000008000000000000000040000020000001000802000000800000000000000000000800000000000000000000100040000000080000000000000000400000000004000000000100000000000000000100000000240000000000008000000800000000000000000000000800124000000000000000004000800002000000000000000000000000020000000000000080000020000000001000000000004000040000000000000000000",
      "type": "0x2",
      "effectiveGasPrice": "0xb2d05e0c"
    },
    {
      "transactionHash": "0xf2dd190f70995c090cc8ae9d18af1bc0cf252cbe97cddba3ac3b7d5c523440d6",
      "transactionIndex": "0x3",
      "blockHash": "0xba1576e0d87cbef41b1264c1550393331917ffaabde362e648b83d5f61cf7a0d",
      "blockNumber": "0xabd69a",
      "from": "0x9444390c01dd5b7249e53fac31290f7dff53450d",
      "to": "0xe8fc6dc27ffbf4a9f800aef46506d620ecb8d9a1",
      "cumulativeGasUsed": "0x1c22d9",
      "gasUsed": "0x876b",
      "contractAddress": null,
      "logs": [
        {
          "address": "0xe8fc6dc27ffbf4a9f800aef46506d620ecb8d9a1",
          "topics": [
            "0x51c05df9b26498d8aacb73705841d08155abf0e88e37a735871e545bc27b38bb"
          ],
          "data": "0x0000000000000000000000000000000000000000000000000000000000000000",
          "blockHash": "0xba1576e0d87cbef41b1264c1550393331917ffaabde362e648b83d5f61cf7a0d",
          "blockNumber": "0xabd69a",
          "transactionHash": "0xf2dd190f70995c090cc8ae9d18af1bc0cf252cbe97cddba3ac3b7d5c523440d6",
          "transactionIndex": "0x3",
          "logIndex": "0x15",
          "removed": false
        }
      ],
      "status": "0x1",
      "logsBloom": "0x00000000000000000000000000000000000000000000000000000000000000000000000000000000000000000000000000000000000000000000000000000000000000000000000000000000000000000000000000000000000000000000000000000000000000000000000000000000000000000000000000000000000000000000010000000000000000000000000000000400000000000000000000000000000000000000000000000000000000000000000000800000000000000000000000000000040000000000000000000000000000000000000000000000000000000000000000000000000000000000000000000204000000000000000000000000",
      "type": "0x2",
      "effectiveGasPrice": "0xb2d05e0c"
    },
    {
      "transactionHash": "0x3c89a00e7c9bbddec727d7121569fc6cde2d3cce3a5c920f0055d0b01127b3c3",
      "transactionIndex": "0x4",
      "blockHash": "0xba1576e0d87cbef41b1264c1550393331917ffaabde362e648b83d5f61cf7a0d",
      "blockNumber": "0xabd69a",
      "from": "0x9444390c01dd5b7249e53fac31290f7dff53450d",
      "to": "0xe8fc6dc27ffbf4a9f800aef46506d620ecb8d9a1",
      "cumulativeGasUsed": "0x2147d6",
      "gasUsed": "0x524fd",
      "contractAddress": null,
      "logs": [
        {
          "address": "0xe8fc6dc27ffbf4a9f800aef46506d620ecb8d9a1",
          "topics": [
            "0x5db9ee0a495bf2e6ff9c91a7834c1ba4fdd244a5e8aa4e537bd38aeae4b073aa"
          ],
          "data": "0x0000000000000000000000009444390c01dd5b7249e53fac31290f7dff53450d",
          "blockHash": "0xba1576e0d87cbef41b1264c1550393331917ffaabde362e648b83d5f61cf7a0d",
          "blockNumber": "0xabd69a",
          "transactionHash": "0x3c89a00e7c9bbddec727d7121569fc6cde2d3cce3a5c920f0055d0b01127b3c3",
          "transactionIndex": "0x4",
          "logIndex": "0x16",
          "removed": false
        },
        {
          "address": "0xe8fc6dc27ffbf4a9f800aef46506d620ecb8d9a1",
          "topics": [
            "0x8292fce18fa69edf4db7b94ea2e58241df0ae57f97e0a6c9b29067028bf92d76",
            "0x0000000000000000000000009444390c01dd5b7249e53fac31290f7dff53450d",
            "0x0000000000000000000000000f27b98d7e449fa27f294312c1534961967fb90e"
          ],
          "data": "0x",
          "blockHash": "0xba1576e0d87cbef41b1264c1550393331917ffaabde362e648b83d5f61cf7a0d",
          "blockNumber": "0xabd69a",
          "transactionHash": "0x3c89a00e7c9bbddec727d7121569fc6cde2d3cce3a5c920f0055d0b01127b3c3",
          "transactionIndex": "0x4",
          "logIndex": "0x17",
          "removed": false
        },
        {
          "address": "0x5042e07c5be8952f6324986eee7c6a3d7c48c966",
          "topics": [
            "0xddf252ad1be2c89b69c2b068fc378daa952ba7f163c4a11628f55a4df523b3ef",
            "0x0000000000000000000000000000000000000000000000000000000000000000",
            "0x0000000000000000000000009444390c01dd5b7249e53fac31290f7dff53450d",
            "0x0000000000000000000000000000000000000000000000000000000000000000"
          ],
          "data": "0x",
          "blockHash": "0xba1576e0d87cbef41b1264c1550393331917ffaabde362e648b83d5f61cf7a0d",
          "blockNumber": "0xabd69a",
          "transactionHash": "0x3c89a00e7c9bbddec727d7121569fc6cde2d3cce3a5c920f0055d0b01127b3c3",
          "transactionIndex": "0x4",
          "logIndex": "0x18",
          "removed": false
        },
        {
          "address": "0x5042e07c5be8952f6324986eee7c6a3d7c48c966",
          "topics": [
            "0xdec2bacdd2f05b59de34da9b523dff8be42e5e38e818c82fdb0bae774387a724",
            "0x0000000000000000000000009444390c01dd5b7249e53fac31290f7dff53450d"
          ],
          "data": "0x00000000000000000000000000000000000000000000000000000000000000000000000000000000000000000000000000000000000000000000000000000001",
          "blockHash": "0xba1576e0d87cbef41b1264c1550393331917ffaabde362e648b83d5f61cf7a0d",
          "blockNumber": "0xabd69a",
          "transactionHash": "0x3c89a00e7c9bbddec727d7121569fc6cde2d3cce3a5c920f0055d0b01127b3c3",
          "transactionIndex": "0x4",
          "logIndex": "0x19",
          "removed": false
        },
        {
          "address": "0x5042e07c5be8952f6324986eee7c6a3d7c48c966",
          "topics": [
            "0xddf252ad1be2c89b69c2b068fc378daa952ba7f163c4a11628f55a4df523b3ef",
            "0x0000000000000000000000000000000000000000000000000000000000000000",
            "0x000000000000000000000000e8fc6dc27ffbf4a9f800aef46506d620ecb8d9a1",
            "0x0000000000000000000000000000000000000000000000000000000000000001"
          ],
          "data": "0x",
          "blockHash": "0xba1576e0d87cbef41b1264c1550393331917ffaabde362e648b83d5f61cf7a0d",
          "blockNumber": "0xabd69a",
          "transactionHash": "0x3c89a00e7c9bbddec727d7121569fc6cde2d3cce3a5c920f0055d0b01127b3c3",
          "transactionIndex": "0x4",
          "logIndex": "0x1a",
          "removed": false
        },
        {
          "address": "0x5042e07c5be8952f6324986eee7c6a3d7c48c966",
          "topics": [
            "0xdec2bacdd2f05b59de34da9b523dff8be42e5e38e818c82fdb0bae774387a724",
            "0x000000000000000000000000e8fc6dc27ffbf4a9f800aef46506d620ecb8d9a1"
          ],
          "data": "0x00000000000000000000000000000000000000000000000000000000000000000000000000000000000000000000000000000000000000000000000000000001",
          "blockHash": "0xba1576e0d87cbef41b1264c1550393331917ffaabde362e648b83d5f61cf7a0d",
          "blockNumber": "0xabd69a",
          "transactionHash": "0x3c89a00e7c9bbddec727d7121569fc6cde2d3cce3a5c920f0055d0b01127b3c3",
          "transactionIndex": "0x4",
          "logIndex": "0x1b",
          "removed": false
        },
        {
          "address": "0xe8fc6dc27ffbf4a9f800aef46506d620ecb8d9a1",
          "topics": [
            "0xd6eddd1118d71820909c1197aa966dbc15ed6f508554252169cc3d5ccac756ca"
          ],
          "data": "0x0000000000000000000000000000000000000000000000000000000000000001000000000000000000000000000000000000000000000000000000006306cc57000000000000000000000000000000000000000000000000000000006306cc61",
          "blockHash": "0xba1576e0d87cbef41b1264c1550393331917ffaabde362e648b83d5f61cf7a0d",
          "blockNumber": "0xabd69a",
          "transactionHash": "0x3c89a00e7c9bbddec727d7121569fc6cde2d3cce3a5c920f0055d0b01127b3c3",
          "transactionIndex": "0x4",
          "logIndex": "0x1c",
          "removed": false
        }
      ],
      "status": "0x1",
      "logsBloom": "0x00020000000000040000000000200000000000000000000080000000000000000000000000000200008000000000000000000100000000000000000000040004000000000000000000000008000000000000000000040000080000008000000000000000020000001040800000000800000000000000000000000010000000000000000000000000000080000000000000000400000000000010000000000800040000000000000000000040000000000000000000800000000000000000000000000102000000000000000004000000000000000000000000000000000060000000000000080000020000000000000000000004000001000000000000000400",
      "type": "0x2",
      "effectiveGasPrice": "0xb2d05e0c"
    },
    {
      "transactionHash": "0x158bbe57d7d9657abb34da2d8b169696f75599eda6bc7852e53bcdc3e45b27a4",
      "transactionIndex": "0x5",
      "blockHash": "0xba1576e0d87cbef41b1264c1550393331917ffaabde362e648b83d5f61cf7a0d",
      "blockNumber": "0xabd69a",
      "from": "0x9444390c01dd5b7249e53fac31290f7dff53450d",
      "to": "0xe8fc6dc27ffbf4a9f800aef46506d620ecb8d9a1",
      "cumulativeGasUsed": "0x2244ea",
      "gasUsed": "0xfd14",
      "contractAddress": null,
      "logs": [
        {
          "address": "0xe8fc6dc27ffbf4a9f800aef46506d620ecb8d9a1",
          "topics": [
            "0x1edd36b28569cf1cf930c008c5bcb196ea19525977951413bec3118946951561"
          ],
          "data": "0x00000000000000000000000000000000000000000000000000000000000000010000000000000000000000009444390c01dd5b7249e53fac31290f7dff53450d000000000000000000000000000000000000000000000000002386f26fc100000000000000000000000000000000000000000000000000000000000000000000000000000000000000000000000000000000000000000000000000006306cc61",
          "blockHash": "0xba1576e0d87cbef41b1264c1550393331917ffaabde362e648b83d5f61cf7a0d",
          "blockNumber": "0xabd69a",
          "transactionHash": "0x158bbe57d7d9657abb34da2d8b169696f75599eda6bc7852e53bcdc3e45b27a4",
          "transactionIndex": "0x5",
          "logIndex": "0x1d",
          "removed": false
        }
      ],
      "status": "0x1",
      "logsBloom": "0x00000000000000000000000000000000000000000000000000000000000000000000000000000000000000000000000000000000000000000000000000000000000000000000000000000000000000000000000000000000100000000000000000000000000000000000800000000000000000000000000000000000000000000000000000000000000000000000000000000400000000000000000000000000000000000000000000000000000000000000000000800000000000000000000000000000000000000000000000000000000000000000000000000000000000000000000000000000000000000000000000000004000000000000800000000000",
      "type": "0x2",
      "effectiveGasPrice": "0xb2d05e0c"
    }
  ],
  "libraries": [],
  "pending": [],
  "path": "/Users/iain/zora/nouns-protocol/broadcast/DeployNewDAO.s.sol/4/run-latest.json",
  "returns": {},
  "timestamp": 1661389914
}