{
  "transactions": [
    {
      "hash": "0xf2bcafaba3c5c14f244821f53abae7ea4ffb65b2b6bba17838e3bd823dc91789",
      "transactionType": "CALL",
      "contractName": "Manager",
      "contractAddress": "0xdc76e2dd4bdc3edf718b3e30f855ef975a411a37",
      "function": "deploy((address,uint256,uint256)[],(bytes),(uint256,uint256),(uint256,uint256,uint256,uint256,uint256)):(address,address,address,address,address)",
      "arguments": [
        "[(9444390c01dd5b7249e53fac31290f7dff53450d,2,632e5938)]",
        "(00000000000000000000000000000000000000000000000000000000000000a000000000000000000000000000000000000000000000000000000000000000e00000000000000000000000000000000000000000000000000000000000000120000000000000000000000000000000000000000000000000000000000000016000000000000000000000000000000000000000000000000000000000000001c0000000000000000000000000000000000000000000000000000000000000000a4d6f636b20546f6b656e0000000000000000000000000000000000000000000000000000000000000000000000000000000000000000000000000000000000044d4f434b000000000000000000000000000000000000000000000000000000000000000000000000000000000000000000000000000000000000000000000014546869732069732061206d6f636b20746f6b656e0000000000000000000000000000000000000000000000000000000000000000000000000000000000000035697066733a2f2f516d657737546479476e6a365952556a5152363873554a4e333233394d595852443875786f7778463672474b386a0000000000000000000000000000000000000000000000000000000000000000000000000000000000001c687474703a2f2f6c6f63616c686f73743a353030302f72656e64657200000000)",
        "(2386f26fc10000,a)",
        "(0,0,a,a,64)"
      ],
      "transaction": {
        "type": "0x02",
        "from": "0x9444390c01dd5b7249e53fac31290f7dff53450d",
        "to": "0xdc76e2dd4bdc3edf718b3e30f855ef975a411a37",
        "gas": "0x20a546",
        "value": "0x0",
        "data": "0xeb1cb38c000000000000000000000000000000000000000000000000000000000000012000000000000000000000000000000000000000000000000000000000000001a0000000000000000000000000000000000000000000000000002386f26fc10000000000000000000000000000000000000000000000000000000000000000000a00000000000000000000000000000000000000000000000000000000000000000000000000000000000000000000000000000000000000000000000000000000000000000000000000000000000000000000000000000000000000000000000a000000000000000000000000000000000000000000000000000000000000000a000000000000000000000000000000000000000000000000000000000000006400000000000000000000000000000000000000000000000000000000000000010000000000000000000000009444390c01dd5b7249e53fac31290f7dff53450d000000000000000000000000000000000000000000000000000000000000000200000000000000000000000000000000000000000000000000000000632e59380000000000000000000000000000000000000000000000000000000000000020000000000000000000000000000000000000000000000000000000000000020000000000000000000000000000000000000000000000000000000000000000a000000000000000000000000000000000000000000000000000000000000000e00000000000000000000000000000000000000000000000000000000000000120000000000000000000000000000000000000000000000000000000000000016000000000000000000000000000000000000000000000000000000000000001c0000000000000000000000000000000000000000000000000000000000000000a4d6f636b20546f6b656e0000000000000000000000000000000000000000000000000000000000000000000000000000000000000000000000000000000000044d4f434b000000000000000000000000000000000000000000000000000000000000000000000000000000000000000000000000000000000000000000000014546869732069732061206d6f636b20746f6b656e0000000000000000000000000000000000000000000000000000000000000000000000000000000000000035697066733a2f2f516d657737546479476e6a365952556a5152363873554a4e333233394d595852443875786f7778463672474b386a0000000000000000000000000000000000000000000000000000000000000000000000000000000000001c687474703a2f2f6c6f63616c686f73743a353030302f72656e64657200000000",
        "nonce": "0x43e",
        "accessList": []
      }
    },
    {
      "hash": "0xf2dd190f70995c090cc8ae9d18af1bc0cf252cbe97cddba3ac3b7d5c523440d6",
      "transactionType": "CALL",
      "contractName": "ERC1967Proxy",
      "contractAddress": "0xe8fc6dc27ffbf4a9f800aef46506d620ecb8d9a1",
      "function": null,
      "arguments": null,
      "transaction": {
        "type": "0x02",
        "from": "0x9444390c01dd5b7249e53fac31290f7dff53450d",
        "to": "0xe8fc6dc27ffbf4a9f800aef46506d620ecb8d9a1",
        "gas": "0xc60c",
        "value": "0x0",
        "data": "0x7120334b0000000000000000000000000000000000000000000000000000000000000000",
        "nonce": "0x43f",
        "accessList": []
      }
    },
    {
      "hash": "0x3c89a00e7c9bbddec727d7121569fc6cde2d3cce3a5c920f0055d0b01127b3c3",
      "transactionType": "CALL",
      "contractName": "ERC1967Proxy",
      "contractAddress": "0xe8fc6dc27ffbf4a9f800aef46506d620ecb8d9a1",
      "function": null,
      "arguments": null,
      "transaction": {
        "type": "0x02",
        "from": "0x9444390c01dd5b7249e53fac31290f7dff53450d",
        "to": "0xe8fc6dc27ffbf4a9f800aef46506d620ecb8d9a1",
        "gas": "0x71b16",
        "value": "0x0",
        "data": "0x3f4ba83a",
        "nonce": "0x440",
        "accessList": []
      }
    },
    {
      "hash": "0x158bbe57d7d9657abb34da2d8b169696f75599eda6bc7852e53bcdc3e45b27a4",
      "transactionType": "CALL",
      "contractName": "ERC1967Proxy",
      "contractAddress": "0xe8fc6dc27ffbf4a9f800aef46506d620ecb8d9a1",
      "function": null,
      "arguments": null,
      "transaction": {
        "type": "0x02",
        "from": "0x9444390c01dd5b7249e53fac31290f7dff53450d",
        "to": "0xe8fc6dc27ffbf4a9f800aef46506d620ecb8d9a1",
        "gas": "0x15d90",
        "value": "0x2386f26fc10000",
        "data": "0x659dd2b40000000000000000000000000000000000000000000000000000000000000001",
        "nonce": "0x441",
        "accessList": []
      }
    }
  ],
  "receipts": [],
  "libraries": [],
  "pending": [
    "0xf2bcafaba3c5c14f244821f53abae7ea4ffb65b2b6bba17838e3bd823dc91789",
    "0xf2dd190f70995c090cc8ae9d18af1bc0cf252cbe97cddba3ac3b7d5c523440d6",
    "0x3c89a00e7c9bbddec727d7121569fc6cde2d3cce3a5c920f0055d0b01127b3c3",
    "0x158bbe57d7d9657abb34da2d8b169696f75599eda6bc7852e53bcdc3e45b27a4"
  ],
  "path": "/Users/iain/zora/nouns-protocol/broadcast/DeployNewDAO.s.sol/4/run-latest.json",
  "returns": {},
  "timestamp": 1661389900
}